{
  "_format": "hh-sol-artifact-1",
  "contractName": "GovernanceToken",
  "sourceName": "contracts/GovernanceToken.sol",
  "abi": [
    {
      "inputs": [],
      "stateMutability": "nonpayable",
      "type": "constructor"
    },
    {
      "anonymous": false,
      "inputs": [
        {
          "indexed": true,
          "internalType": "address",
          "name": "owner",
          "type": "address"
        },
        {
          "indexed": true,
          "internalType": "address",
          "name": "spender",
          "type": "address"
        },
        {
          "indexed": false,
          "internalType": "uint256",
          "name": "value",
          "type": "uint256"
        }
      ],
      "name": "Approval",
      "type": "event"
    },
    {
      "anonymous": false,
      "inputs": [
        {
          "indexed": true,
          "internalType": "address",
          "name": "delegator",
          "type": "address"
        },
        {
          "indexed": true,
          "internalType": "address",
          "name": "fromDelegate",
          "type": "address"
        },
        {
          "indexed": true,
          "internalType": "address",
          "name": "toDelegate",
          "type": "address"
        }
      ],
      "name": "DelegateChanged",
      "type": "event"
    },
    {
      "anonymous": false,
      "inputs": [
        {
          "indexed": true,
          "internalType": "address",
          "name": "delegate",
          "type": "address"
        },
        {
          "indexed": false,
          "internalType": "uint256",
          "name": "previousBalance",
          "type": "uint256"
        },
        {
          "indexed": false,
          "internalType": "uint256",
          "name": "newBalance",
          "type": "uint256"
        }
      ],
      "name": "DelegateVotesChanged",
      "type": "event"
    },
    {
      "anonymous": false,
      "inputs": [
        {
          "indexed": true,
          "internalType": "address",
          "name": "from",
          "type": "address"
        },
        {
          "indexed": true,
          "internalType": "address",
          "name": "to",
          "type": "address"
        },
        {
          "indexed": false,
          "internalType": "uint256",
          "name": "value",
          "type": "uint256"
        }
      ],
      "name": "Transfer",
      "type": "event"
    },
    {
      "inputs": [],
      "name": "DOMAIN_SEPARATOR",
      "outputs": [
        {
          "internalType": "bytes32",
          "name": "",
          "type": "bytes32"
        }
      ],
      "stateMutability": "view",
      "type": "function"
    },
    {
      "inputs": [
        {
          "internalType": "address",
          "name": "owner",
          "type": "address"
        },
        {
          "internalType": "address",
          "name": "spender",
          "type": "address"
        }
      ],
      "name": "allowance",
      "outputs": [
        {
          "internalType": "uint256",
          "name": "",
          "type": "uint256"
        }
      ],
      "stateMutability": "view",
      "type": "function"
    },
    {
      "inputs": [
        {
          "internalType": "address",
          "name": "spender",
          "type": "address"
        },
        {
          "internalType": "uint256",
          "name": "amount",
          "type": "uint256"
        }
      ],
      "name": "approve",
      "outputs": [
        {
          "internalType": "bool",
          "name": "",
          "type": "bool"
        }
      ],
      "stateMutability": "nonpayable",
      "type": "function"
    },
    {
      "inputs": [
        {
          "internalType": "address",
          "name": "account",
          "type": "address"
        }
      ],
      "name": "balanceOf",
      "outputs": [
        {
          "internalType": "uint256",
          "name": "",
          "type": "uint256"
        }
      ],
      "stateMutability": "view",
      "type": "function"
    },
    {
      "inputs": [
        {
          "internalType": "address",
          "name": "account",
          "type": "address"
        },
        {
          "internalType": "uint32",
          "name": "pos",
          "type": "uint32"
        }
      ],
      "name": "checkpoints",
      "outputs": [
        {
          "components": [
            {
              "internalType": "uint32",
              "name": "fromBlock",
              "type": "uint32"
            },
            {
              "internalType": "uint224",
              "name": "votes",
              "type": "uint224"
            }
          ],
          "internalType": "struct ERC20Votes.Checkpoint",
          "name": "",
          "type": "tuple"
        }
      ],
      "stateMutability": "view",
      "type": "function"
    },
    {
      "inputs": [],
      "name": "decimals",
      "outputs": [
        {
          "internalType": "uint8",
          "name": "",
          "type": "uint8"
        }
      ],
      "stateMutability": "view",
      "type": "function"
    },
    {
      "inputs": [
        {
          "internalType": "address",
          "name": "spender",
          "type": "address"
        },
        {
          "internalType": "uint256",
          "name": "subtractedValue",
          "type": "uint256"
        }
      ],
      "name": "decreaseAllowance",
      "outputs": [
        {
          "internalType": "bool",
          "name": "",
          "type": "bool"
        }
      ],
      "stateMutability": "nonpayable",
      "type": "function"
    },
    {
      "inputs": [
        {
          "internalType": "address",
          "name": "delegatee",
          "type": "address"
        }
      ],
      "name": "delegate",
      "outputs": [],
      "stateMutability": "nonpayable",
      "type": "function"
    },
    {
      "inputs": [
        {
          "internalType": "address",
          "name": "delegatee",
          "type": "address"
        },
        {
          "internalType": "uint256",
          "name": "nonce",
          "type": "uint256"
        },
        {
          "internalType": "uint256",
          "name": "expiry",
          "type": "uint256"
        },
        {
          "internalType": "uint8",
          "name": "v",
          "type": "uint8"
        },
        {
          "internalType": "bytes32",
          "name": "r",
          "type": "bytes32"
        },
        {
          "internalType": "bytes32",
          "name": "s",
          "type": "bytes32"
        }
      ],
      "name": "delegateBySig",
      "outputs": [],
      "stateMutability": "nonpayable",
      "type": "function"
    },
    {
      "inputs": [
        {
          "internalType": "address",
          "name": "account",
          "type": "address"
        }
      ],
      "name": "delegates",
      "outputs": [
        {
          "internalType": "address",
          "name": "",
          "type": "address"
        }
      ],
      "stateMutability": "view",
      "type": "function"
    },
    {
      "inputs": [
        {
          "internalType": "uint256",
          "name": "blockNumber",
          "type": "uint256"
        }
      ],
      "name": "getPastTotalSupply",
      "outputs": [
        {
          "internalType": "uint256",
          "name": "",
          "type": "uint256"
        }
      ],
      "stateMutability": "view",
      "type": "function"
    },
    {
      "inputs": [
        {
          "internalType": "address",
          "name": "account",
          "type": "address"
        },
        {
          "internalType": "uint256",
          "name": "blockNumber",
          "type": "uint256"
        }
      ],
      "name": "getPastVotes",
      "outputs": [
        {
          "internalType": "uint256",
          "name": "",
          "type": "uint256"
        }
      ],
      "stateMutability": "view",
      "type": "function"
    },
    {
      "inputs": [
        {
          "internalType": "address",
          "name": "account",
          "type": "address"
        }
      ],
      "name": "getVotes",
      "outputs": [
        {
          "internalType": "uint256",
          "name": "",
          "type": "uint256"
        }
      ],
      "stateMutability": "view",
      "type": "function"
    },
    {
      "inputs": [
        {
          "internalType": "address",
          "name": "spender",
          "type": "address"
        },
        {
          "internalType": "uint256",
          "name": "addedValue",
          "type": "uint256"
        }
      ],
      "name": "increaseAllowance",
      "outputs": [
        {
          "internalType": "bool",
          "name": "",
          "type": "bool"
        }
      ],
      "stateMutability": "nonpayable",
      "type": "function"
    },
    {
      "inputs": [],
      "name": "name",
      "outputs": [
        {
          "internalType": "string",
          "name": "",
          "type": "string"
        }
      ],
      "stateMutability": "view",
      "type": "function"
    },
    {
      "inputs": [
        {
          "internalType": "address",
          "name": "owner",
          "type": "address"
        }
      ],
      "name": "nonces",
      "outputs": [
        {
          "internalType": "uint256",
          "name": "",
          "type": "uint256"
        }
      ],
      "stateMutability": "view",
      "type": "function"
    },
    {
      "inputs": [
        {
          "internalType": "address",
          "name": "account",
          "type": "address"
        }
      ],
      "name": "numCheckpoints",
      "outputs": [
        {
          "internalType": "uint32",
          "name": "",
          "type": "uint32"
        }
      ],
      "stateMutability": "view",
      "type": "function"
    },
    {
      "inputs": [
        {
          "internalType": "address",
          "name": "owner",
          "type": "address"
        },
        {
          "internalType": "address",
          "name": "spender",
          "type": "address"
        },
        {
          "internalType": "uint256",
          "name": "value",
          "type": "uint256"
        },
        {
          "internalType": "uint256",
          "name": "deadline",
          "type": "uint256"
        },
        {
          "internalType": "uint8",
          "name": "v",
          "type": "uint8"
        },
        {
          "internalType": "bytes32",
          "name": "r",
          "type": "bytes32"
        },
        {
          "internalType": "bytes32",
          "name": "s",
          "type": "bytes32"
        }
      ],
      "name": "permit",
      "outputs": [],
      "stateMutability": "nonpayable",
      "type": "function"
    },
    {
      "inputs": [],
      "name": "symbol",
      "outputs": [
        {
          "internalType": "string",
          "name": "",
          "type": "string"
        }
      ],
      "stateMutability": "view",
      "type": "function"
    },
    {
      "inputs": [],
      "name": "totalSupply",
      "outputs": [
        {
          "internalType": "uint256",
          "name": "",
          "type": "uint256"
        }
      ],
      "stateMutability": "view",
      "type": "function"
    },
    {
      "inputs": [
        {
          "internalType": "address",
          "name": "to",
          "type": "address"
        },
        {
          "internalType": "uint256",
          "name": "amount",
          "type": "uint256"
        }
      ],
      "name": "transfer",
      "outputs": [
        {
          "internalType": "bool",
          "name": "",
          "type": "bool"
        }
      ],
      "stateMutability": "nonpayable",
      "type": "function"
    },
    {
      "inputs": [
        {
          "internalType": "address",
          "name": "from",
          "type": "address"
        },
        {
          "internalType": "address",
          "name": "to",
          "type": "address"
        },
        {
          "internalType": "uint256",
          "name": "amount",
          "type": "uint256"
        }
      ],
      "name": "transferFrom",
      "outputs": [
        {
          "internalType": "bool",
          "name": "",
          "type": "bool"
        }
      ],
      "stateMutability": "nonpayable",
      "type": "function"
    }
  ],
  "bytecode": "0x6101406040523480156200001257600080fd5b506040518060400160405280600781526020017f4d79546f6b656e00000000000000000000000000000000000000000000000000815250806040518060400160405280600181526020017f31000000000000000000000000000000000000000000000000000000000000008152506040518060400160405280600f81526020017f476f7665726e616e6365546f6b656e00000000000000000000000000000000008152506040518060400160405280600281526020017f475400000000000000000000000000000000000000000000000000000000000081525081600390805190602001906200010492919062000218565b5080600490805190602001906200011d92919062000218565b50505060008280519060200120905060008280519060200120905060007f8b73c3c69bb8fe3d512ecc4cf759cc79239f7b179b0ffacaa9a75d522b39400f90508260e081815250508161010081815250504660a0818152505062000189818484620001dc60201b60201c565b608081815250503073ffffffffffffffffffffffffffffffffffffffff1660c08173ffffffffffffffffffffffffffffffffffffffff1660601b8152505080610120818152505050505050505062000405565b60008383834630604051602001620001f995949392919062000343565b6040516020818303038152906040528051906020012090509392505050565b8280546200022690620003cf565b90600052602060002090601f0160209004810192826200024a576000855562000296565b82601f106200026557805160ff191683800117855562000296565b8280016001018555821562000296579182015b828111156200029557825182559160200191906001019062000278565b5b509050620002a59190620002a9565b5090565b5b80821115620002c4576000816000905550600101620002aa565b5090565b6000819050919050565b620002dd81620002c8565b82525050565b6000819050919050565b620002f881620002e3565b82525050565b600073ffffffffffffffffffffffffffffffffffffffff82169050919050565b60006200032b82620002fe565b9050919050565b6200033d816200031e565b82525050565b600060a0820190506200035a6000830188620002d2565b620003696020830187620002d2565b620003786040830186620002d2565b620003876060830185620002ed565b62000396608083018462000332565b9695505050505050565b7f4e487b7100000000000000000000000000000000000000000000000000000000600052602260045260246000fd5b60006002820490506001821680620003e857607f821691505b60208210811415620003ff57620003fe620003a0565b5b50919050565b60805160a05160c05160601c60e05161010051610120516134206200045860003960006114090152600061144b0152600061142a0152600061135f015260006113b5015260006113de01526134206000f3fe608060405234801561001057600080fd5b50600436106101425760003560e01c806370a08231116100b8578063a457c2d71161007c578063a457c2d7146103d9578063a9059cbb14610409578063c3cda52014610439578063d505accf14610455578063dd62ed3e14610471578063f1127ed8146104a157610142565b806370a08231146102fb5780637ecebe001461032b5780638e539e8c1461035b57806395d89b411461038b5780639ab24eb0146103a957610142565b80633644e5151161010a5780633644e51514610201578063395093511461021f5780633a46b1a81461024f578063587cde1e1461027f5780635c19a95c146102af5780636fcfff45146102cb57610142565b806306fdde0314610147578063095ea7b31461016557806318160ddd1461019557806323b872dd146101b3578063313ce567146101e3575b600080fd5b61014f6104d1565b60405161015c919061214e565b60405180910390f35b61017f600480360381019061017a9190612209565b610563565b60405161018c9190612264565b60405180910390f35b61019d610586565b6040516101aa919061228e565b60405180910390f35b6101cd60048036038101906101c891906122a9565b610590565b6040516101da9190612264565b60405180910390f35b6101eb6105bf565b6040516101f89190612318565b60405180910390f35b6102096105c8565b604051610216919061234c565b60405180910390f35b61023960048036038101906102349190612209565b6105d7565b6040516102469190612264565b60405180910390f35b61026960048036038101906102649190612209565b61060e565b604051610276919061228e565b60405180910390f35b61029960048036038101906102949190612367565b6106a2565b6040516102a691906123a3565b60405180910390f35b6102c960048036038101906102c49190612367565b61070b565b005b6102e560048036038101906102e09190612367565b61071f565b6040516102f291906123dd565b60405180910390f35b61031560048036038101906103109190612367565b610773565b604051610322919061228e565b60405180910390f35b61034560048036038101906103409190612367565b6107bb565b604051610352919061228e565b60405180910390f35b610375600480360381019061037091906123f8565b61080b565b604051610382919061228e565b60405180910390f35b610393610861565b6040516103a0919061214e565b60405180910390f35b6103c360048036038101906103be9190612367565b6108f3565b6040516103d0919061228e565b60405180910390f35b6103f360048036038101906103ee9190612209565b610a04565b6040516104009190612264565b60405180910390f35b610423600480360381019061041e9190612209565b610a7b565b6040516104309190612264565b60405180910390f35b610453600480360381019061044e919061247d565b610a9e565b005b61046f600480360381019061046a919061250a565b610ba2565b005b61048b600480360381019061048691906125ac565b610ce4565b604051610498919061228e565b60405180910390f35b6104bb60048036038101906104b69190612618565b610d6b565b6040516104c891906126cd565b60405180910390f35b6060600380546104e090612717565b80601f016020809104026020016040519081016040528092919081815260200182805461050c90612717565b80156105595780601f1061052e57610100808354040283529160200191610559565b820191906000526020600020905b81548152906001019060200180831161053c57829003601f168201915b5050505050905090565b60008061056e610e7b565b905061057b818585610e83565b600191505092915050565b6000600254905090565b60008061059b610e7b565b90506105a885828561104e565b6105b38585856110da565b60019150509392505050565b60006012905090565b60006105d261135b565b905090565b6000806105e2610e7b565b90506106038185856105f48589610ce4565b6105fe9190612778565b610e83565b600191505092915050565b6000438210610652576040517f08c379a00000000000000000000000000000000000000000000000000000000081526004016106499061281a565b60405180910390fd5b61069a600860008573ffffffffffffffffffffffffffffffffffffffff1673ffffffffffffffffffffffffffffffffffffffff16815260200190815260200160002083611475565b905092915050565b6000600760008373ffffffffffffffffffffffffffffffffffffffff1673ffffffffffffffffffffffffffffffffffffffff16815260200190815260200160002060009054906101000a900473ffffffffffffffffffffffffffffffffffffffff169050919050565b61071c610716610e7b565b82611581565b50565b600061076c600860008473ffffffffffffffffffffffffffffffffffffffff1673ffffffffffffffffffffffffffffffffffffffff1681526020019081526020016000208054905061169b565b9050919050565b60008060008373ffffffffffffffffffffffffffffffffffffffff1673ffffffffffffffffffffffffffffffffffffffff168152602001908152602001600020549050919050565b6000610804600560008473ffffffffffffffffffffffffffffffffffffffff1673ffffffffffffffffffffffffffffffffffffffff1681526020019081526020016000206116ee565b9050919050565b600043821061084f576040517f08c379a00000000000000000000000000000000000000000000000000000000081526004016108469061281a565b60405180910390fd5b61085a600983611475565b9050919050565b60606004805461087090612717565b80601f016020809104026020016040519081016040528092919081815260200182805461089c90612717565b80156108e95780601f106108be576101008083540402835291602001916108e9565b820191906000526020600020905b8154815290600101906020018083116108cc57829003601f168201915b5050505050905090565b600080600860008473ffffffffffffffffffffffffffffffffffffffff1673ffffffffffffffffffffffffffffffffffffffff168152602001908152602001600020805490509050600081146109db57600860008473ffffffffffffffffffffffffffffffffffffffff1673ffffffffffffffffffffffffffffffffffffffff16815260200190815260200160002060018261098f919061283a565b815481106109a05761099f61286e565b5b9060005260206000200160000160049054906101000a90047bffffffffffffffffffffffffffffffffffffffffffffffffffffffff166109de565b60005b7bffffffffffffffffffffffffffffffffffffffffffffffffffffffff16915050919050565b600080610a0f610e7b565b90506000610a1d8286610ce4565b905083811015610a62576040517f08c379a0000000000000000000000000000000000000000000000000000000008152600401610a599061290f565b60405180910390fd5b610a6f8286868403610e83565b60019250505092915050565b600080610a86610e7b565b9050610a938185856110da565b600191505092915050565b83421115610ae1576040517f08c379a0000000000000000000000000000000000000000000000000000000008152600401610ad89061297b565b60405180910390fd5b6000610b43610b3b7fe48329057bfd03d55e49b547132e39cffd9c1820ad7b9d4c5307691425d15adf898989604051602001610b20949392919061299b565b604051602081830303815290604052805190602001206116fc565b858585611716565b9050610b4e81611741565b8614610b8f576040517f08c379a0000000000000000000000000000000000000000000000000000000008152600401610b8690612a2c565b60405180910390fd5b610b998188611581565b50505050505050565b83421115610be5576040517f08c379a0000000000000000000000000000000000000000000000000000000008152600401610bdc90612a98565b60405180910390fd5b60007f6e71edae12b1b97f4d1f60370fef10105fa2faae0126114a169c64845d6126c9888888610c148c611741565b89604051602001610c2a96959493929190612ab8565b6040516020818303038152906040528051906020012090506000610c4d826116fc565b90506000610c5d82878787611716565b90508973ffffffffffffffffffffffffffffffffffffffff168173ffffffffffffffffffffffffffffffffffffffff1614610ccd576040517f08c379a0000000000000000000000000000000000000000000000000000000008152600401610cc490612b65565b60405180910390fd5b610cd88a8a8a610e83565b50505050505050505050565b6000600160008473ffffffffffffffffffffffffffffffffffffffff1673ffffffffffffffffffffffffffffffffffffffff16815260200190815260200160002060008373ffffffffffffffffffffffffffffffffffffffff1673ffffffffffffffffffffffffffffffffffffffff16815260200190815260200160002054905092915050565b610d73612077565b600860008473ffffffffffffffffffffffffffffffffffffffff1673ffffffffffffffffffffffffffffffffffffffff1681526020019081526020016000208263ffffffff1681548110610dca57610dc961286e565b5b906000526020600020016040518060400160405290816000820160009054906101000a900463ffffffff1663ffffffff1663ffffffff1681526020016000820160049054906101000a90047bffffffffffffffffffffffffffffffffffffffffffffffffffffffff167bffffffffffffffffffffffffffffffffffffffffffffffffffffffff167bffffffffffffffffffffffffffffffffffffffffffffffffffffffff1681525050905092915050565b600033905090565b600073ffffffffffffffffffffffffffffffffffffffff168373ffffffffffffffffffffffffffffffffffffffff161415610ef3576040517f08c379a0000000000000000000000000000000000000000000000000000000008152600401610eea90612bf7565b60405180910390fd5b600073ffffffffffffffffffffffffffffffffffffffff168273ffffffffffffffffffffffffffffffffffffffff161415610f63576040517f08c379a0000000000000000000000000000000000000000000000000000000008152600401610f5a90612c89565b60405180910390fd5b80600160008573ffffffffffffffffffffffffffffffffffffffff1673ffffffffffffffffffffffffffffffffffffffff16815260200190815260200160002060008473ffffffffffffffffffffffffffffffffffffffff1673ffffffffffffffffffffffffffffffffffffffff168152602001908152602001600020819055508173ffffffffffffffffffffffffffffffffffffffff168373ffffffffffffffffffffffffffffffffffffffff167f8c5be1e5ebec7d5bd14f71427d1e84f3dd0314c0f7b2291e5b200ac8c7c3b92583604051611041919061228e565b60405180910390a3505050565b600061105a8484610ce4565b90507fffffffffffffffffffffffffffffffffffffffffffffffffffffffffffffffff81146110d457818110156110c6576040517f08c379a00000000000000000000000000000000000000000000000000000000081526004016110bd90612cf5565b60405180910390fd5b6110d38484848403610e83565b5b50505050565b600073ffffffffffffffffffffffffffffffffffffffff168373ffffffffffffffffffffffffffffffffffffffff16141561114a576040517f08c379a000000000000000000000000000000000000000000000000000000000815260040161114190612d87565b60405180910390fd5b600073ffffffffffffffffffffffffffffffffffffffff168273ffffffffffffffffffffffffffffffffffffffff1614156111ba576040517f08c379a00000000000000000000000000000000000000000000000000000000081526004016111b190612e19565b60405180910390fd5b6111c583838361179f565b60008060008573ffffffffffffffffffffffffffffffffffffffff1673ffffffffffffffffffffffffffffffffffffffff1681526020019081526020016000205490508181101561124b576040517f08c379a000000000000000000000000000000000000000000000000000000000815260040161124290612eab565b60405180910390fd5b8181036000808673ffffffffffffffffffffffffffffffffffffffff1673ffffffffffffffffffffffffffffffffffffffff16815260200190815260200160002081905550816000808573ffffffffffffffffffffffffffffffffffffffff1673ffffffffffffffffffffffffffffffffffffffff16815260200190815260200160002060008282546112de9190612778565b925050819055508273ffffffffffffffffffffffffffffffffffffffff168473ffffffffffffffffffffffffffffffffffffffff167fddf252ad1be2c89b69c2b068fc378daa952ba7f163c4a11628f55a4df523b3ef84604051611342919061228e565b60405180910390a36113558484846117a4565b50505050565b60007f000000000000000000000000000000000000000000000000000000000000000073ffffffffffffffffffffffffffffffffffffffff163073ffffffffffffffffffffffffffffffffffffffff161480156113d757507f000000000000000000000000000000000000000000000000000000000000000046145b15611404577f00000000000000000000000000000000000000000000000000000000000000009050611472565b61146f7f00000000000000000000000000000000000000000000000000000000000000007f00000000000000000000000000000000000000000000000000000000000000007f00000000000000000000000000000000000000000000000000000000000000006117b4565b90505b90565b6000808380549050905060005b818110156114f457600061149682846117ee565b9050848682815481106114ac576114ab61286e565b5b9060005260206000200160000160009054906101000a900463ffffffff1663ffffffff1611156114de578092506114ee565b6001816114eb9190612778565b91505b50611482565b60008214611556578460018361150a919061283a565b8154811061151b5761151a61286e565b5b9060005260206000200160000160049054906101000a90047bffffffffffffffffffffffffffffffffffffffffffffffffffffffff16611559565b60005b7bffffffffffffffffffffffffffffffffffffffffffffffffffffffff169250505092915050565b600061158c836106a2565b9050600061159984610773565b905082600760008673ffffffffffffffffffffffffffffffffffffffff1673ffffffffffffffffffffffffffffffffffffffff16815260200190815260200160002060006101000a81548173ffffffffffffffffffffffffffffffffffffffff021916908373ffffffffffffffffffffffffffffffffffffffff1602179055508273ffffffffffffffffffffffffffffffffffffffff168273ffffffffffffffffffffffffffffffffffffffff168573ffffffffffffffffffffffffffffffffffffffff167f3134e8a2e6d97e929a7e54011ea5485d7d196dd5f0ba4d4ef95803e8e3fc257f60405160405180910390a4611695828483611814565b50505050565b600063ffffffff80168211156116e6576040517f08c379a00000000000000000000000000000000000000000000000000000000081526004016116dd90612f3d565b60405180910390fd5b819050919050565b600081600001549050919050565b600061170f61170961135b565b83611a0d565b9050919050565b600080600061172787878787611a40565b9150915061173481611b4d565b8192505050949350505050565b600080600560008473ffffffffffffffffffffffffffffffffffffffff1673ffffffffffffffffffffffffffffffffffffffff168152602001908152602001600020905061178e816116ee565b915061179981611d22565b50919050565b505050565b6117af838383611d38565b505050565b600083838346306040516020016117cf959493929190612f5d565b6040516020818303038152906040528051906020012090509392505050565b600060028284186117ff9190612fdf565b82841661180c9190612778565b905092915050565b8173ffffffffffffffffffffffffffffffffffffffff168373ffffffffffffffffffffffffffffffffffffffff16141580156118505750600081115b15611a0857600073ffffffffffffffffffffffffffffffffffffffff168373ffffffffffffffffffffffffffffffffffffffff161461192e576000806118d7600860008773ffffffffffffffffffffffffffffffffffffffff1673ffffffffffffffffffffffffffffffffffffffff168152602001908152602001600020611d6385611d79565b915091508473ffffffffffffffffffffffffffffffffffffffff167fdec2bacdd2f05b59de34da9b523dff8be42e5e38e818c82fdb0bae774387a7248383604051611923929190613010565b60405180910390a250505b600073ffffffffffffffffffffffffffffffffffffffff168273ffffffffffffffffffffffffffffffffffffffff1614611a07576000806119b0600860008673ffffffffffffffffffffffffffffffffffffffff1673ffffffffffffffffffffffffffffffffffffffff168152602001908152602001600020611ff185611d79565b915091508373ffffffffffffffffffffffffffffffffffffffff167fdec2bacdd2f05b59de34da9b523dff8be42e5e38e818c82fdb0bae774387a72483836040516119fc929190613010565b60405180910390a250505b5b505050565b60008282604051602001611a229291906130b1565b60405160208183030381529060405280519060200120905092915050565b6000807f7fffffffffffffffffffffffffffffff5d576e7357a4501ddfe92f46681b20a08360001c1115611a7b576000600391509150611b44565b601b8560ff1614158015611a935750601c8560ff1614155b15611aa5576000600491509150611b44565b600060018787878760405160008152602001604052604051611aca94939291906130e8565b6020604051602081039080840390855afa158015611aec573d6000803e3d6000fd5b505050602060405103519050600073ffffffffffffffffffffffffffffffffffffffff168173ffffffffffffffffffffffffffffffffffffffff161415611b3b57600060019250925050611b44565b80600092509250505b94509492505050565b60006004811115611b6157611b6061312d565b5b816004811115611b7457611b7361312d565b5b1415611b7f57611d1f565b60016004811115611b9357611b9261312d565b5b816004811115611ba657611ba561312d565b5b1415611be7576040517f08c379a0000000000000000000000000000000000000000000000000000000008152600401611bde906131a8565b60405180910390fd5b60026004811115611bfb57611bfa61312d565b5b816004811115611c0e57611c0d61312d565b5b1415611c4f576040517f08c379a0000000000000000000000000000000000000000000000000000000008152600401611c4690613214565b60405180910390fd5b60036004811115611c6357611c6261312d565b5b816004811115611c7657611c7561312d565b5b1415611cb7576040517f08c379a0000000000000000000000000000000000000000000000000000000008152600401611cae906132a6565b60405180910390fd5b600480811115611cca57611cc961312d565b5b816004811115611cdd57611cdc61312d565b5b1415611d1e576040517f08c379a0000000000000000000000000000000000000000000000000000000008152600401611d1590613338565b60405180910390fd5b5b50565b6001816000016000828254019250508190555050565b611d43838383612007565b611d5e611d4f846106a2565b611d58846106a2565b83611814565b505050565b60008183611d71919061283a565b905092915050565b60008060008580549050905060008114611de75785600182611d9b919061283a565b81548110611dac57611dab61286e565b5b9060005260206000200160000160049054906101000a90047bffffffffffffffffffffffffffffffffffffffffffffffffffffffff16611dea565b60005b7bffffffffffffffffffffffffffffffffffffffffffffffffffffffff169250611e1883858763ffffffff16565b9150600081118015611e6b57504386600183611e34919061283a565b81548110611e4557611e4461286e565b5b9060005260206000200160000160009054906101000a900463ffffffff1663ffffffff16145b15611ef857611e798261200c565b86600183611e87919061283a565b81548110611e9857611e9761286e565b5b9060005260206000200160000160046101000a8154817bffffffffffffffffffffffffffffffffffffffffffffffffffffffff02191690837bffffffffffffffffffffffffffffffffffffffffffffffffffffffff160217905550611fe8565b856040518060400160405280611f0d4361169b565b63ffffffff168152602001611f218561200c565b7bffffffffffffffffffffffffffffffffffffffffffffffffffffffff168152509080600181540180825580915050600190039060005260206000200160009091909190915060008201518160000160006101000a81548163ffffffff021916908363ffffffff16021790555060208201518160000160046101000a8154817bffffffffffffffffffffffffffffffffffffffffffffffffffffffff02191690837bffffffffffffffffffffffffffffffffffffffffffffffffffffffff16021790555050505b50935093915050565b60008183611fff9190612778565b905092915050565b505050565b60007bffffffffffffffffffffffffffffffffffffffffffffffffffffffff801682111561206f576040517f08c379a0000000000000000000000000000000000000000000000000000000008152600401612066906133ca565b60405180910390fd5b819050919050565b6040518060400160405280600063ffffffff16815260200160007bffffffffffffffffffffffffffffffffffffffffffffffffffffffff1681525090565b600081519050919050565b600082825260208201905092915050565b60005b838110156120ef5780820151818401526020810190506120d4565b838111156120fe576000848401525b50505050565b6000601f19601f8301169050919050565b6000612120826120b5565b61212a81856120c0565b935061213a8185602086016120d1565b61214381612104565b840191505092915050565b600060208201905081810360008301526121688184612115565b905092915050565b600080fd5b600073ffffffffffffffffffffffffffffffffffffffff82169050919050565b60006121a082612175565b9050919050565b6121b081612195565b81146121bb57600080fd5b50565b6000813590506121cd816121a7565b92915050565b6000819050919050565b6121e6816121d3565b81146121f157600080fd5b50565b600081359050612203816121dd565b92915050565b600080604083850312156122205761221f612170565b5b600061222e858286016121be565b925050602061223f858286016121f4565b9150509250929050565b60008115159050919050565b61225e81612249565b82525050565b60006020820190506122796000830184612255565b92915050565b612288816121d3565b82525050565b60006020820190506122a3600083018461227f565b92915050565b6000806000606084860312156122c2576122c1612170565b5b60006122d0868287016121be565b93505060206122e1868287016121be565b92505060406122f2868287016121f4565b9150509250925092565b600060ff82169050919050565b612312816122fc565b82525050565b600060208201905061232d6000830184612309565b92915050565b6000819050919050565b61234681612333565b82525050565b6000602082019050612361600083018461233d565b92915050565b60006020828403121561237d5761237c612170565b5b600061238b848285016121be565b91505092915050565b61239d81612195565b82525050565b60006020820190506123b86000830184612394565b92915050565b600063ffffffff82169050919050565b6123d7816123be565b82525050565b60006020820190506123f260008301846123ce565b92915050565b60006020828403121561240e5761240d612170565b5b600061241c848285016121f4565b91505092915050565b61242e816122fc565b811461243957600080fd5b50565b60008135905061244b81612425565b92915050565b61245a81612333565b811461246557600080fd5b50565b60008135905061247781612451565b92915050565b60008060008060008060c0878903121561249a57612499612170565b5b60006124a889828a016121be565b96505060206124b989828a016121f4565b95505060406124ca89828a016121f4565b94505060606124db89828a0161243c565b93505060806124ec89828a01612468565b92505060a06124fd89828a01612468565b9150509295509295509295565b600080600080600080600060e0888a03121561252957612528612170565b5b60006125378a828b016121be565b97505060206125488a828b016121be565b96505060406125598a828b016121f4565b955050606061256a8a828b016121f4565b945050608061257b8a828b0161243c565b93505060a061258c8a828b01612468565b92505060c061259d8a828b01612468565b91505092959891949750929550565b600080604083850312156125c3576125c2612170565b5b60006125d1858286016121be565b92505060206125e2858286016121be565b9150509250929050565b6125f5816123be565b811461260057600080fd5b50565b600081359050612612816125ec565b92915050565b6000806040838503121561262f5761262e612170565b5b600061263d858286016121be565b925050602061264e85828601612603565b9150509250929050565b612661816123be565b82525050565b60007bffffffffffffffffffffffffffffffffffffffffffffffffffffffff82169050919050565b61269881612667565b82525050565b6040820160008201516126b46000850182612658565b5060208201516126c7602085018261268f565b50505050565b60006040820190506126e2600083018461269e565b92915050565b7f4e487b7100000000000000000000000000000000000000000000000000000000600052602260045260246000fd5b6000600282049050600182168061272f57607f821691505b60208210811415612743576127426126e8565b5b50919050565b7f4e487b7100000000000000000000000000000000000000000000000000000000600052601160045260246000fd5b6000612783826121d3565b915061278e836121d3565b9250827fffffffffffffffffffffffffffffffffffffffffffffffffffffffffffffffff038211156127c3576127c2612749565b5b828201905092915050565b7f4552433230566f7465733a20626c6f636b206e6f7420796574206d696e656400600082015250565b6000612804601f836120c0565b915061280f826127ce565b602082019050919050565b60006020820190508181036000830152612833816127f7565b9050919050565b6000612845826121d3565b9150612850836121d3565b92508282101561286357612862612749565b5b828203905092915050565b7f4e487b7100000000000000000000000000000000000000000000000000000000600052603260045260246000fd5b7f45524332303a2064656372656173656420616c6c6f77616e63652062656c6f7760008201527f207a65726f000000000000000000000000000000000000000000000000000000602082015250565b60006128f96025836120c0565b91506129048261289d565b604082019050919050565b60006020820190508181036000830152612928816128ec565b9050919050565b7f4552433230566f7465733a207369676e61747572652065787069726564000000600082015250565b6000612965601d836120c0565b91506129708261292f565b602082019050919050565b6000602082019050818103600083015261299481612958565b9050919050565b60006080820190506129b0600083018761233d565b6129bd6020830186612394565b6129ca604083018561227f565b6129d7606083018461227f565b95945050505050565b7f4552433230566f7465733a20696e76616c6964206e6f6e636500000000000000600082015250565b6000612a166019836120c0565b9150612a21826129e0565b602082019050919050565b60006020820190508181036000830152612a4581612a09565b9050919050565b7f45524332305065726d69743a206578706972656420646561646c696e65000000600082015250565b6000612a82601d836120c0565b9150612a8d82612a4c565b602082019050919050565b60006020820190508181036000830152612ab181612a75565b9050919050565b600060c082019050612acd600083018961233d565b612ada6020830188612394565b612ae76040830187612394565b612af4606083018661227f565b612b01608083018561227f565b612b0e60a083018461227f565b979650505050505050565b7f45524332305065726d69743a20696e76616c6964207369676e61747572650000600082015250565b6000612b4f601e836120c0565b9150612b5a82612b19565b602082019050919050565b60006020820190508181036000830152612b7e81612b42565b9050919050565b7f45524332303a20617070726f76652066726f6d20746865207a65726f2061646460008201527f7265737300000000000000000000000000000000000000000000000000000000602082015250565b6000612be16024836120c0565b9150612bec82612b85565b604082019050919050565b60006020820190508181036000830152612c1081612bd4565b9050919050565b7f45524332303a20617070726f766520746f20746865207a65726f20616464726560008201527f7373000000000000000000000000000000000000000000000000000000000000602082015250565b6000612c736022836120c0565b9150612c7e82612c17565b604082019050919050565b60006020820190508181036000830152612ca281612c66565b9050919050565b7f45524332303a20696e73756666696369656e7420616c6c6f77616e6365000000600082015250565b6000612cdf601d836120c0565b9150612cea82612ca9565b602082019050919050565b60006020820190508181036000830152612d0e81612cd2565b9050919050565b7f45524332303a207472616e736665722066726f6d20746865207a65726f20616460008201527f6472657373000000000000000000000000000000000000000000000000000000602082015250565b6000612d716025836120c0565b9150612d7c82612d15565b604082019050919050565b60006020820190508181036000830152612da081612d64565b9050919050565b7f45524332303a207472616e7366657220746f20746865207a65726f206164647260008201527f6573730000000000000000000000000000000000000000000000000000000000602082015250565b6000612e036023836120c0565b9150612e0e82612da7565b604082019050919050565b60006020820190508181036000830152612e3281612df6565b9050919050565b7f45524332303a207472616e7366657220616d6f756e742065786365656473206260008201527f616c616e63650000000000000000000000000000000000000000000000000000602082015250565b6000612e956026836120c0565b9150612ea082612e39565b604082019050919050565b60006020820190508181036000830152612ec481612e88565b9050919050565b7f53616665436173743a2076616c756520646f65736e27742066697420696e203360008201527f3220626974730000000000000000000000000000000000000000000000000000602082015250565b6000612f276026836120c0565b9150612f3282612ecb565b604082019050919050565b60006020820190508181036000830152612f5681612f1a565b9050919050565b600060a082019050612f72600083018861233d565b612f7f602083018761233d565b612f8c604083018661233d565b612f99606083018561227f565b612fa66080830184612394565b9695505050505050565b7f4e487b7100000000000000000000000000000000000000000000000000000000600052601260045260246000fd5b6000612fea826121d3565b9150612ff5836121d3565b92508261300557613004612fb0565b5b828204905092915050565b6000604082019050613025600083018561227f565b613032602083018461227f565b9392505050565b600081905092915050565b7f1901000000000000000000000000000000000000000000000000000000000000600082015250565b600061307a600283613039565b915061308582613044565b600282019050919050565b6000819050919050565b6130ab6130a682612333565b613090565b82525050565b60006130bc8261306d565b91506130c8828561309a565b6020820191506130d8828461309a565b6020820191508190509392505050565b60006080820190506130fd600083018761233d565b61310a6020830186612309565b613117604083018561233d565b613124606083018461233d565b95945050505050565b7f4e487b7100000000000000000000000000000000000000000000000000000000600052602160045260246000fd5b7f45434453413a20696e76616c6964207369676e61747572650000000000000000600082015250565b60006131926018836120c0565b915061319d8261315c565b602082019050919050565b600060208201905081810360008301526131c181613185565b9050919050565b7f45434453413a20696e76616c6964207369676e6174757265206c656e67746800600082015250565b60006131fe601f836120c0565b9150613209826131c8565b602082019050919050565b6000602082019050818103600083015261322d816131f1565b9050919050565b7f45434453413a20696e76616c6964207369676e6174757265202773272076616c60008201527f7565000000000000000000000000000000000000000000000000000000000000602082015250565b60006132906022836120c0565b915061329b82613234565b604082019050919050565b600060208201905081810360008301526132bf81613283565b9050919050565b7f45434453413a20696e76616c6964207369676e6174757265202776272076616c60008201527f7565000000000000000000000000000000000000000000000000000000000000602082015250565b60006133226022836120c0565b915061332d826132c6565b604082019050919050565b6000602082019050818103600083015261335181613315565b9050919050565b7f53616665436173743a2076616c756520646f65736e27742066697420696e203260008201527f3234206269747300000000000000000000000000000000000000000000000000602082015250565b60006133b46027836120c0565b91506133bf82613358565b604082019050919050565b600060208201905081810360008301526133e3816133a7565b905091905056fea2646970667358221220f5b41f376b44922b8313735908ee4d242f9cf28d1462824d3d932a0060d7388064736f6c63430008080033",
  "linkReferences": {},
  "deployedLinkReferences": {}
}